:100000000C945D000C9485000C9485000C94850084
:100010000C9485000C9485000C9485000C9485004C
:100020000C9485000C9485000C9485000C9470034E
:100030000C9485000C94F2060C9485000C948500B9
:100040000C94A60A0C9485000C943F080C94190893
:100050000C9485000C9485000C9485000C9485000C
:100060000C9442020C94850000000000240027003C
:100070002A0000000000250028002B0004040404CE
:100080000404040402020202020203030303030342
:10009000010204081020408001020408102001021F
:1000A00004081020000000080002010000030407FB
:1000B0000000000000000000F60D11241FBECFEF6D
:1000C000D8E0DEBFCDBF11E0A0E0B1E0EEE6F2E2A5
:1000D00002C005900D92A637B107D9F724E0A6E734
:1000E000B1E001C01D92AE32B207E1F710E0CDE5FC
:1000F000D0E004C02197FE010E947D10CC35D107CD
:10010000C9F70E94F00A0C9435110C940000FC0110
:10011000918D828D981761F0828DDF01A80FB11D3E
:100120005D968C91928D9F5F9F73928F90E0089562
:100130008FEF9FEF0895FC01918D828D981731F01C
:10014000828DE80FF11D858D90E008958FEF9FEF70
:100150000895FC01918D228D892F90E0805C9F4F46
:10016000821B91098F739927089580E090E0892B75
:1001700029F00E949E0781110C940000089585EDDE
:100180008093BC008091BC0084FDFCCF10921A02C9
:10019000089540919B01262F30E0240F311D21321C
:1001A0003105DCF420911A022430C9F4FC0180E00E
:1001B00090E0861758F430919B012191DC01A758FB
:1001C000BE4FA30FB11D2C930196F3CF80919B01DD
:1001D000680F60939B0180E0089581E0089582E0BC
:1001E0000895089508950895E09178018091770128
:1001F000E81730F4F0E0EC52FE4F808190E0089573
:100200008FEF9FEF08959091780180917701981773
:1002100050F4E92FF0E0EC52FE4F208130E09F5F78
:100220009093780102C02FEF3FEFC90108958091AC
:10023000770190E020917801821B91090895CF9277
:10024000DF92EF92FF920F931F93CF93DF937C0186
:10025000CB018A0120911B02222389F0EB016B0163
:10026000C40ED51ECC15DD0569F06991D701ED915D
:10027000FC910190F081E02DC7010995F3CF642F27
:100280000E94C900C801DF91CF911F910F91FF908B
:10029000EF90DF90CF900895CF93DF931F92CDB76B
:1002A000DEB7698320911B022223D1F020913E0208
:1002B000203240F021E030E0FC013383228380E0F3
:1002C00090E015C080911C02E82FF0E0E35EFD4F46
:1002D000998190838F5F80931C0280933E0205C0BA
:1002E00061E0CE0101960E94C90081E090E00F908C
:1002F000DF91CF910895089580E090E008957F9276
:100300008F929F92AF92BF92CF92DF92EF92FF9225
:100310000F931F93CF93DF93EC017F888BE08715BA
:1003200008F466C0CA84DB840D2C000CEE08FF08BC
:100330008E809F80092C000CAA08BB082C853D8567
:10034000C901330FAA0BBB0B9C01AD012C193D0950
:100350004E095F09CB01770FAA0BBB0BBC01CD0186
:10036000681979098A099B090E94611028853985D5
:100370008901330F220B330BA90198012819390980
:100380004A095B090E940610C20ED31EE41EF51E28
:10039000288D88E890E0821B910927FD9395880FAE
:1003A000991F880F991FC816D90684F0898D48E5D2
:1003B00052E0481B510987FD5395440F551F440FC8
:1003C000551FC6014C155D050CF4CA010297880F34
:1003D000991F4FB7F894272D30E0F901EE0FFF1F5A
:1003E0002E0F3F1FF901E851FD4F928381834FBFCC
:1003F000DF91CF911F910F91FF90EF90DF90CF9001
:10040000BF90AF909F908F907F900895CF93C42F0F
:10041000FC01828191E090931B0280933D02109237
:100420001C0210923E028CED92E00E944C016C2F57
:100430008CED92E00E944C0181E0CF910C94710808
:10044000FC01848DDF01A80FB11DA35ABF4F2C9171
:10045000848D90E001968F739927848FA689B78940
:100460002C93A089B1898C91837080648C93938D37
:10047000848D981306C00288F389E02D80818F7DDA
:10048000808308951F920F920FB60F9211242F931D
:100490003F934F935F936F937F938F939F93AF930C
:1004A000BF93EF93FF938091B900887F803609F462
:1004B0009CC068F5883209F45BC090F4803109F47F
:1004C00054C038F4882309F4F6C0883009F44DC0CC
:1004D000F6C0883109F44CC0803209F45DC0EFC029
:1004E000803409F468C048F4803309F455C0883377
:1004F00009F0E5C080931802D8C0803509F44FC0D8
:10050000883509F45DC0883409F0D9C0D6C088396F
:1005100009F4C7C0A8F4883709F467C038F48836EE
:1005200009F463C0803709F460C0C9C0883809F491
:10053000B8C0803909F45FC0803809F0C0C05BC022
:10054000803B09F486C038F4803A09F466C0883AE2
:1005500009F47FC0B4C0803C09F4A7C0883C09F40A
:10056000A4C0883B09F48AC0AAC08091F50110C0DC
:100570009091170280911602981770F5E09117027A
:1005800081E08E0F80931702F0E0EA50FE4F8081E9
:100590008093BB0085EC86C0809318028EC0E091EA
:1005A000170281E08E0F809317028091BB00F0E06C
:1005B000EA50FE4F808390911702809116026EC020
:1005C000E091170281E08E0F809317028091BB00AB
:1005D000F0E0EA50FE4F80838091190281116DC0D6
:1005E00081E08093F40184EA61C083E080931A0281
:1005F0001092BF01CFCF8091BF01803208F051C06F
:10060000E091BF0181E08E0F8093BF018091BB001C
:10061000F0E0E156FE4F8083BDCF85EC8093BC00B7
:1006200010921A028091BF01803230F4E091BF0134
:10063000F0E0E156FE4F10826091BF0170E0E09162
:100640009D01F0919E018FE991E009951092BF0103
:1006500036C084E080931A0210929C0110929B0194
:10066000E0919901F0919A01099580919B01811186
:1006700005C081E080939B0110927901E0919C017B
:1006800081E08E0F80939C01F0E0E758FE4F80815F
:100690008093BB0090919C0180919B01981708F476
:1006A00079CF85E88093BC000AC085EC8093BC00BC
:1006B00010921A0204C0109218020E94BF00FF910B
:1006C000EF91BF91AF919F918F917F916F915F91CA
:1006D0004F913F912F910F900FBE0F901F90189543
:1006E0001F920F920FB60F9211242F933F934F93A7
:1006F0005F936F937F938F939F93AF93BF93EF938A
:10070000FF938091760187FF05C0109285001092BB
:1007100084001BC020917601022E000C330B8091C7
:100720000C0390E02817390784F480917601082E95
:10073000000C990BFC01EE0FFF1F8E0F9F1FFC0199
:10074000E851FD4F808186FD15C0809176018F5F55
:100750008093760120917601022E000C330B80915C
:100760000C0390E028173907C4F4809176018C308F
:1007700064F113C080917601082E000C990BFC01E6
:10078000EE0FFF1F8E0F9F1FFC01E851FD4F808170
:1007900060E08F730E947009D8CF8091840090919F
:1007A0008500049680349C4918F480E49CE905C0D7
:1007B00080918400909185000496909389008093A5
:1007C00088008FEF809376013BC0209184003091A8
:1007D000850080917601082E000C990BFC01EE0F2C
:1007E000FF1F8E0F9F1FFC01E851FD4F81819281F9
:1007F000820F931F909389008093880080917601E7
:10080000082E000C990BFC01EE0FFF1F8E0F9F1F8F
:10081000FC01E851FD4F808186FF12C08091760176
:10082000082E000C990BFC01EE0FFF1F8E0F9F1F6F
:10083000FC01E851FD4F808161E08F730E947009D7
:10084000FF91EF91BF91AF919F918F917F916F91A8
:100850005F914F913F912F910F900FBE0F901F907E
:1008600018950F931F93CF93DF938C01FC01828126
:1008700091E090931B0280933D0210921C02109213
:100880003E028CED92E00E944C0180E00E947108D3
:10089000C82F882379F086E291E00E940F096C2F1F
:1008A00070E080E090E04AE00E94210982E391E05C
:1008B0000E940F0962E0F80182810E94CD08109227
:1008C0007801809377018CED92E00E940301EC01A6
:1008D0008CED92E00E940301DD2796E0CC0FDD1F36
:1008E0009A95E1F78F739E01280F311DC901DF91A1
:1008F000CF911F910F9108950F931F93CF93DF9383
:10090000EC0140E066E10E94060240E067E1CE01B2
:100910000E9406026EEFCE010E9431048C01AC01F0
:1009200086E0569547958A95E1F766E1CE010E94EB
:100930000602402F4F7367E1CE01DF91CF911F91E7
:100940000F910C9406021F93CF93DF93EC0111E0FB
:10095000188319821E821F821886198666E10E94FA
:1009600031049D838C838A8110931B0280933D0206
:1009700010921C0210923E0265E18CED92E00E9402
:100980004C0180E00E947108182F882379F086E2DC
:1009900091E00E940F09612F70E080E090E04AE052
:1009A0000E94210982E391E00E940F0961E08A819F
:1009B0000E94CD0810927801809377018CED92E02F
:1009C0000E9403018B831A861B861C861D861B8E44
:1009D0001A8E8BEA9AEAAAEABEE38E8B9F8BA88FC7
:1009E000B98FDF91CF911F9108954F925F926F92CF
:1009F0007F928F929F92AF92BF92CF92DF92EF92AF
:100A0000FF921F93CF93DF93CDB7DEB7CB54D109BD
:100A10000FB6F894DEBF0FBECDBFEFE3F2E0A089C2
:100A2000B18982E08C93A485B5851C92A685B78593
:100A30008FEC8C93108EA489B58986E08C93A28963
:100A4000B3898C9180618C93A289B3898C918860E1
:100A50008C93A289B3898C9180688C930288F389E6
:100A6000E02D80818F7D8083109278011092770134
:100A700010921C0210923E0210921A0281E08093A2
:100A800019021092F40161E082E10E94700961E0B4
:100A900083E10E947009E9EBF0E080818E7F808322
:100AA00080818D7F808388E48093B80085E4809383
:100AB000BC0081EF90E090939A018093990182EFBE
:100AC00090E090939E0180939D0185E391E00E94C8
:100AD000620910E419871F8285E090E09A83898378
:100AE00084E090E09C838B8383E090E09E838D8301
:100AF00061E085E00E94BD0961E08B810E94BD0933
:100B000061E08D810E94BD091F821987CE01079681
:100B10000E94A304CE0107960E947C0480E090E02E
:100B2000A1E1B3E48FA398A7A9A7BAA78DECC82E1B
:100B30008CECD82EED2C8DE3F82ECBA6DCA6EDA602
:100B4000FEA680E090E0A1E9B2E48FA798ABA9AB44
:100B5000BAAB412C512C90E2692E91E4792E4BAA2C
:100B60005CAA6DAA7EAACFAAD8AEE9AEFAAE812C55
:100B7000912C20EAA22E20E4B22E8BAE9CAEADAE1C
:100B8000BEAE2C961FAE2C978BE4FE013196A1E4ED
:100B9000B3E001900D928A95E1F719871F8288E0F2
:100BA00090E09A83898387E090E09C838B8386E042
:100BB00090E09E838D8361E088E00E94BD0961E042
:100BC0008B810E94BD0961E08D810E94BD091F8259
:100BD00081E48987CE0107960E94A304CE0107967F
:100BE0000E947C0440E050E067E073E44FA358A704
:100BF00069A77AA7CBA6DCA6EDA6FEA680E090E0CA
:100C0000A3E8B2E48FA798ABA9ABBAAB4BAB5CAB94
:100C10006DAB7EABCFAAD8AEE9AEFAAE8BAF9CAFD0
:100C2000ADAFBEAF2C961FAE2C978BE4FE01319674
:100C3000ACE8B3E001900D928A95E1F719871F8225
:100C40008CE090E09A8389838DE090E09C838B8395
:100C50008BE090E09E838D8361E08CE00E94BD0973
:100C600061E08B810E94BD0961E08D810E94BD0918
:100C70001F8282E48987CE0107960E94A304CE01D9
:100C800007960E947C044FA258A669A67AA6CBA616
:100C9000DCA6EDA6FEA68FA698AAA9AABAAA80E00D
:100CA00090E0A1E1B3E48BAB9CABADABBEABCFAA04
:100CB000D8AEE9AEFAAE80E090E0A1E9B2E48BAF45
:100CC0009CAFADAFBEAF2C961FAE2C978BE4FE0150
:100CD0003196A7EDB3E001900D928A95E1F710925D
:100CE00063031092640310926503109266031092DE
:100CF000830310928403109285031092860310924E
:100D00007F0310928003109281031092820310924D
:100D1000AE031092AF031092B0031092B103109281
:100D2000CE031092CF031092D0031092D1031092F1
:100D3000CA031092CB031092CC031092CD031092F1
:100D4000F9031092FA031092FB031092FC03109225
:100D5000190410921A0410921B0410921C04109291
:100D6000150410921604109217041092180441E012
:100D700069E070E0CE0101960E94F9098AE1FE0166
:100D80003196ADE0B3E001900D928A95E1F740E035
:100D90006AE070E0CE0101960E94F9098AE1FE0145
:100DA0003196A7E2B3E001900D928A95E1F78BE4CA
:100DB00091E00E946209C55BDF4F0FB6F894DEBF79
:100DC0000FBECDBFDF91CF911F91FF90EF90DF90CD
:100DD000CF90BF90AF909F908F907F906F905F90DB
:100DE0004F9008951F920F920FB60F9211242F93D8
:100DF0003F934F935F936F937F938F939F93AF93A3
:100E0000BF93EF93FF93E0E0F0E00995FF91EF913E
:100E1000BF91AF919F918F917F916F915F914F9112
:100E20003F912F910F900FBE0F901F901895EF924A
:100E3000FF920F931F93CF93DF93EC017B018A0105
:100E40008D89882329F00E949A0A7C8B6B8B1D8ADE
:100E500081E0E816F104D1F082E0E816F10431F106
:100E6000EF2821F50E949A0A2B893C89621B730B9B
:100E7000601771071CF46E817F8113C060E070E021
:100E8000CE010E947F0181E08D8B16C00E949A0ADC
:100E90002B893C89621B730B601771077CF768858F
:100EA0007985CE010E947F011E8A07C060E070E054
:100EB000CE010E947F0181E08E8B8E89DF91CF91E0
:100EC0001F910F91FF90EF900895CF92DF92EF92D4
:100ED000FF920F931F93CF93DF936C017A018B01E5
:100EE000C0E0D0E0CE15DF0581F0D8016D918D0115
:100EF000D601ED91FC910190F081E02DC60109959C
:100F0000892B11F02196EECF7E01C701DF91CF91A1
:100F10001F910F91FF90EF90DF90CF900895FC010B
:100F2000538D448D252F30E0842F90E0821B930B4E
:100F3000541710F0CF960895019708958FE392E02B
:100F40000E94A90021E0892B09F420E0822F089556
:100F50000E943011EF92FF920F931F93CF93DF9374
:100F6000EC0181E0888F9B8D8C8D981305C0E889FA
:100F7000F989808185FD26C0F62E0B8D10E00F5F6C
:100F80001F4F0F731127E02E8C8DE8120CC00FB687
:100F900007FCFACFE889F989808185FFF5CFCE017A
:100FA0000E942002F1CF8B8DFE01E80FF11DE35A64
:100FB000FF4FF0829FB7F8940B8FEA89FB898081FD
:100FC00080620AC09FB7F894EE89FF896083E88940
:100FD000F98980818370806480839FBF81E090E085
:100FE000DF91CF911F910F91FF90EF900895CF93D4
:100FF000DF93EC01888D8823C9F0EA89FB89808121
:1010000085FD05C0A889B9898C9186FD0FC00FB6F2
:1010100007FCF5CF808185FFF2CFA889B9898C9133
:1010200085FFEDCFCE010E942002E7CFDF91CF9167
:1010300008951F920F920FB60F9211242F933F9392
:101040004F935F936F937F938F939F93AF93BF93D0
:10105000EF93FF938FE392E00E942002FF91EF91C4
:10106000BF91AF919F918F917F916F915F914F91C0
:101070003F912F910F900FBE0F901F9018951F92C8
:101080000F920FB60F9211242F938F939F93EF938C
:10109000FF93E0914F02F09150028081E091550260
:1010A000F091560282FD12C09081809158028F5FAC
:1010B0008F7320915902821751F0E0915802F0E0AD
:1010C000E15CFD4F958F8093580201C08081FF91B4
:1010D000EF919F918F912F910F900FBE0F901F90C6
:1010E0001895282F30913E02313208F04AC0809185
:1010F0001A028111FCCF90913D0242E040931A0206
:10110000209319022FEF20931802109217023093A8
:101110001602EDE1F2E0A6EFB1E020E0321721F097
:1011200041914D932F5FFACF1092F5012091F50177
:10113000990F922B9093F5019091F401913061F405
:101140001092F4019091F5019093BB009091BC0036
:1011500093FDF8CF95EC01C095EE9093BC00909173
:101160001A029230E1F3909118029F3F79F080913A
:101170001802803241F080911802803331F084E00F
:1011800005C081E003C082E001C083E010921C0230
:1011900010923E0210921B02089590911A02911132
:1011A000FCCF91E090931A02909319022FEF2093B5
:1011B000180210921702260F209316029093F50141
:1011C0009091F501880F892B8093F5018091F401AE
:1011D000813061F41092F4018091F5018093BB009D
:1011E0008091BC0083FDF8CF85EC01C085EE809333
:1011F000BC0080911A028130E1F3809117028617BA
:1012000010F460911702A6EFB1E0E4EDF1E080E0A8
:10121000861721F09D9191938F5FFACF08950097E3
:1012200069F0FC0101900020E9F73197AF01481BFC
:10123000590BBC018FE392E00C94650780E090E0CD
:1012400008958F929F92AF92BF920F931F93CF9367
:10125000DF93CDB7DEB7A1970FB6F894DEBF0FBE10
:10126000CDBF19A2423008F44AE08E010F5D1F4F36
:10127000842E912CA12CB12CA50194010E94301038
:10128000E62FB901CA0101501109EA3014F4E05DFA
:1012900001C0E95CD801EC93232B242B252B61F7AB
:1012A000C8010E940F09A1960FB6F894DEBF0FBEC9
:1012B000CDBFDF91CF911F910F91BF90AF909F90C5
:1012C0008F900895CF93DF930E940F09EC0182E382
:1012D00091E00E940F098C0F9D1FDF91CF9108951F
:1012E00090E0FC01EC55FF4F2491FC01E057FF4FCB
:1012F0003491FC01E458FF4FE491EE2309F43CC023
:10130000222339F1233091F038F42130A9F0223032
:1013100001F584B58F7D12C0273091F02830A1F0FF
:101320002430B9F4809180008F7D03C080918000CB
:101330008F77809380000DC084B58F7784BD09C0FE
:101340008091B0008F7703C08091B0008F7D809333
:10135000B000F0E0EE0FFF1FEE58FF4FA591B491E3
:101360009FB7F894611104C08C913095382302C066
:10137000EC913E2B3C939FBF0895CF93DF9390E079
:10138000FC01E057FF4F2491FC01E458FF4F84918A
:10139000882361F190E0880F991FFC01E859FF4F05
:1013A000C591D491FC01EE58FF4FA591B491611104
:1013B00009C09FB7F8948881209582238883EC9197
:1013C0002E230BC0623061F49FB7F8948881322FCE
:1013D000309583238883EC912E2B2C939FBF06C0DE
:1013E0008FB7F894E8812E2B28838FBFDF91CF91A0
:1013F00008951F93CF93DF93FC01128A118A148AF8
:10140000138A81E0858B20910C032C30A0F4820F8D
:1014100080930C03278B30E0D901AA0FBB1F2A0F42
:101420003B1FD901A851BD4F88EB9BE012969C93BE
:101430008E93119702C08FEF878B8CED95E0978785
:101440008687442379F081E09FEF978386838FEF2F
:1014500090E09187808780ED97E09387828788EE80
:1014600093E00EC08FEF90E09783868381E09FEF3B
:101470009187808788EE93E09387828780ED97E05D
:101480009587848787898C3008F050C0162FEF012C
:1014900061E0812F0E94BD098F89E82FF0E09F0154
:1014A000220F331FE20FF31FE851FD4F1F736081BE
:1014B000607C162B1083188E198E6CE00E947110C0
:1014C0009CE0899FB001112440E050E09B01240F73
:1014D000351FF901EE0FFF1F2E0F3F1FF901E851D5
:1014E000FD4F908196FD16C04F5F5F4F4C30510508
:1014F00069F781110FC01092800082E08093810013
:101500001092850010928400B19A80916F008260E1
:1015100080936F00EF89F0E0CF01880F991FE80FEB
:10152000F91FE851FD4F808180648083DF91CF9166
:101530001F9108952FB7F8946091270470912804A3
:101540008091290490912A042FBF08951F920F9231
:101550000FB60F9211242F933F938F939F93AF93C6
:10156000BF938091270490912804A0912904B09101
:101570002A043091260423E0230F2D3720F401960E
:10158000A11DB11D05C026E8230F0296A11DB11DA6
:10159000209326048093270490932804A093290481
:1015A000B0932A048091220490912304A0912404F2
:1015B000B09125040196A11DB11D80932204909342
:1015C0002304A0932404B0932504BF91AF919F916D
:1015D0008F913F912F910F900FBE0F901F901895F4
:1015E000789484B5826084BD84B5816084BD85B5FE
:1015F000826085BD85B5816085BD80916E0081600A
:1016000080936E00109281008091810082608093AF
:1016100081008091810081608093810080918000B1
:101620008160809380008091B10084608093B100DC
:101630008091B00081608093B00080917A008460D6
:1016400080937A0080917A00826080937A00809102
:101650007A00816080937A0080917A00806880931C
:101660007A001092C1000E94F50434ED232E31E07F
:10167000332E8FE392E00E94A900181619068CF011
:101680008091010181119CC06091C2017091C301E0
:1016900048E052E58DE093E00E9417078093010136
:1016A0008FC080E591E00E94620928ECE22E21E0E3
:1016B000F22EE7010E949A0A609347027093480253
:1016C0008093490290934A028FE392E00E94870040
:1016D00097FF82C20E949A0A009147021091480225
:1016E0002091490230914A02DC01CB01801B910B11
:1016F000A20BB30B009143021091440220914502CA
:101700003091460280179107A207B307E8F200E084
:1017100010E080E090E0F70121917F01FC01EC53A3
:10172000FE4F20838230910514F4019644C00330AB
:101730001105DCF02091C501022E000C330B205363
:1017400031093093C3012093C2011092010120910D
:10175000C601022E000C330B205331093093C10116
:101760002093C0011092000126C084EC91E00E94F9
:10177000BC0EFBE4F09FE001F19FD00D1124CF5B84
:10178000DC4FBC01990F880B990B0E94E90E6AA3EC
:101790007BA38CA39DA3FE01EE5BFF4F1082118201
:1017A00012821382EE96188219821A821B820F5FB0
:1017B0001F4F80E090E02E143F0409F0ACCF60CFC3
:1017C0008091000181110CC06091C0017091C10134
:1017D00048ED59E587E293E00E94170780930001E6
:1017E000C1E4D3E00FE713E0CE0106962F816EEF40
:1017F000222339F00E9431046FEF7FE3681B790BDD
:1018000003C00E943104BC0180E090E00E94E70E1A
:101810006C877D878E879F8720E030E040E858E323
:101820000E94480F20E030E044EB53E40E94480F50
:101830006B017C01F8018485882309F4A6C081E648
:1018400091E00E940F09A7019601C701B6010E940D
:101850002B11882319F089E691E01AC0460157013F
:10186000E894B7F82FEF3FEF4FE75FE7C501B4010A
:101870000E942B1181110FC02FEF3FEF4FE75FE761
:10188000C501B4010E94E20E18162CF48DE691E019
:101890000E940F0976C02FEF3FEF4FE75FE4C701CB
:1018A000B6010E94261118161CF481E791E0F0CFD2
:1018B0002FEF3FEF4FE75FECC701B6010E94E20E4A
:1018C00087FDF3CF20E030E0A901C701B6010E94F7
:1018D000E20E87FF09C06DE28FE392E00E94AA0743
:1018E000C701B601905802C0C701B6012AE037ED22
:1018F00043EA5BE30E9484102B013C010E94F71035
:101900004B015C010E94E70E9B01AC01C301B201D7
:101910000E9483102B013C014AE0C501B4010E94E2
:1019200021096EE28FE392E00E94AA0720E030E0F6
:1019300040E251E4C301B2010E94480F2B013C0177
:101940000E94F7104B01A12CB12C4AE0C501B40153
:101950000E942109C501B4010E94E70E9B01AC0160
:10196000C301B2010E94831020E030E040E251E464
:101970000E94480F0E94F71080E090E04AE00E9429
:10198000210982E391E00E940F0920E030E0A901E3
:10199000C701B6010E94261187FD14C020E030E87F
:1019A00046EB53E4C701B6010E94E20E181654F04C
:1019B000F801C086D186E286F3867C2D6D2D9E2DA2
:1019C0008F2D05C0F8017085618592858385272F4D
:1019D000362F492F582F6AA17BA18CA19DA10E946F
:1019E00083106B017C010E94F0109B0177FF04C003
:1019F00022273327261B370B253B310554F020E0E7
:101A000030E044EB53E4C701B6010E9484106B013F
:101A10007C01F8012081318142815381C701B601E7
:101A20000E9484104B015C01F80160837183828302
:101A300093832EA13FA148A559A5C701B6010E94D5
:101A4000480F2B013C012AA53BA54CA55DA5C5016E
:101A5000B4010E94480F9B01AC01C301B2010E9476
:101A600084104B015C01F801248135814681578146
:101A7000C701B6010E9483102EA53FA548A959A908
:101A80000E94480F9B01AC01C501B4010E94841063
:101A90000E94F0105B01072E000C880B990B0E942E
:101AA000E90E2B013C0120E030E845E653EC0E94B2
:101AB000E20E87FD0DC020E030E845E653E4C301A7
:101AC000B2010E94261118166CF0B7FE0EC004C0B9
:101AD0009BE1A92EBB24BA9461E088810E94700921
:101AE00060E008C085EEA82EB12C60E088810E94DD
:101AF000700961E08A810E947009B7FE03C0B19449
:101B0000A194B1088C809D8061E0882D0E94BD0960
:101B1000A114B10409F449C0FFEFAF16B10409F4F0
:101B200046C0F401FF27EC55FF4FE491E330F9F094
:101B300048F4E130B9F0E230A1F584B5806284BDAB
:101B4000A8BC39C0E730E9F0E83019F1E43049F5D4
:101B500080918000806280938000B0928B00A09280
:101B60008A0029C084B5806884BDA7BC24C0809148
:101B70008000806880938000B0928900A0928800E5
:101B80001AC08091B00080688093B000A092B3002A
:101B900012C08091B00080628093B000A092B40027
:101BA0000AC020E8A216B10414F460E001C061E0AC
:101BB000882D0E947009F801C482D582E682F782DE
:101BC000C55BDF4F055B1F4FF4E0C232DF0709F052
:101BD0000BCE0E94B5004DCD8A30910509F497CD0A
:101BE00089932C163D0609F065CD91CDCF931092C7
:101BF00042021092410288EE93E0A0E0B0E08093B0
:101C0000430290934402A0934502B093460226E01B
:101C100031E03093400220933F0225EC30E03093D6
:101C20004C0220934B0224EC30E030934E02209380
:101C30004D0220EC30E03093500220934F0221EC13
:101C400030E0309352022093510222EC30E0309386
:101C500054022093530226EC30E030935602209336
:101C60005502109258021092590210925A02109284
:101C70005B021092DF021092DE028093E0029093EA
:101C8000E102A093E202B093E30288E191E0909335
:101C9000DD028093DC0280E48093490310924703C5
:101CA00080939403109292038093DF031092DD03DC
:101CB0008EE080932B0460E00E94BD09C1E0C093D8
:101CC0002C0461E080912B040E94700910922D0475
:101CD00080912C04811102C0C0932D0410921F0327
:101CE00010921E03109221031092200381E0809332
:101CF000220380910C038C3020F08FEF809324031B
:101D000013C091E0980F90930C038093240390E00C
:101D1000FC01EE0FFF1F8E0F9F1FFC01E851FD4FCE
:101D200088EB9BE0928381831092390310923803F1
:101D300010923B0310923A0381E080933C03809120
:101D40000C038C3020F08FEF80933E0313C091E0A2
:101D5000980F90930C0380933E0390E0FC01EE0FEC
:101D6000FF1F8E0F9F1FFC01E851FD4F88EB9BE08A
:101D700092838183CF910895FC0188279927E89465
:101D800021912032E9F3293010F02E30C8F32B32A4
:101D900041F02D3239F4689404C00E94DA0E820FAB
:101DA000911D219120532A30C0F31EF49095819506
:101DB0009F4F08957AE0979F902D879F802D910DDA
:101DC000112408950E94240F08F481E00895E894F6
:101DD00009C097FB3EF490958095709561957F4F73
:101DE0008F4F9F4F9923A9F0F92F96E9BB27939521
:101DF000F695879577956795B795F111F8CFFAF431
:101E0000BB0F11F460FF1BC06F5F7F4F8F4F9F4F61
:101E100016C0882311F096E911C0772321F09EE8BF
:101E2000872F762F05C0662371F096E8862F70E025
:101E300060E02AF09A95660F771F881FDAF7880FFF
:101E40009695879597F90895990F0008550FAA0B55
:101E5000E0E8FEEF16161706E807F907C0F01216BD
:101E60001306E407F50798F0621B730B840B950BC0
:101E700039F40A2661F0232B242B252B21F4089515
:101E80000A2609F4A140A6958FEF811D811D0895B2
:101E90000E945B0F0C94CC0F0E94BE0F38F00E9482
:101EA000C50F20F0952311F00C94B50F0C94BB0FC7
:101EB00011240C9400100E94DD0F70F3959FC1F364
:101EC000950F50E0551F629FF001729FBB27F00DE8
:101ED000B11D639FAA27F00DB11DAA1F649F66273D
:101EE000B00DA11D661F829F2227B00DA11D621F8C
:101EF000739FB00DA11D621F839FA00D611D221F46
:101F0000749F3327A00D611D231F849F600D211D29
:101F1000822F762F6A2F11249F5750409AF0F1F0AC
:101F200088234AF0EE0FFF1FBB1F661F771F881F15
:101F300091505040A9F79E3F510580F00C94B50F89
:101F40000C9400105F3FE4F3983ED4F386957795A8
:101F50006795B795F795E7959F5FC1F7FE2B880FBB
:101F6000911D9695879597F9089597F99F6780E851
:101F700070E060E008959FEF80EC089500240A94DB
:101F80001616170618060906089500240A94121654
:101F90001306140605060895092E0394000C11F487
:101FA000882352F0BB0F40F4BF2B11F460FF04C034
:101FB0006F5F7F4F8F4F9F4F089557FD9058440F8D
:101FC000551F59F05F3F71F04795880F97FB991F98
:101FD00061F09F3F79F08795089512161306140655
:101FE000551FF2CF4695F1DF08C0161617061806E2
:101FF000991FF1CF86957105610508940895E894BD
:10200000BB2766277727CB0197F90895052E97FB05
:102010001EF400940E941D1057FD07D00E9430103E
:1020200007FC03D04EF40C941D105095409530954C
:1020300021953F4F4F4F5F4F089590958095709534
:1020400061957F4F8F4F9F4F08950E945210A59F1B
:10205000900DB49F900DA49F800D911D11240895A3
:10206000A1E21A2EAA1BBB1BFD010DC0AA1FBB1F9C
:10207000EE1FFF1FA217B307E407F50720F0A21B0E
:10208000B30BE40BF50B661F771F881F991F1A947B
:1020900069F760957095809590959B01AC01BD01A5
:1020A000CF010895A29FB001B39FC001A39F700DFF
:1020B000811D1124911DB29F700D811D1124911D50
:1020C0000895DB018F939F930E942510BF91AF91DC
:1020D000A29F800D911DA39F900DB29F900D112482
:1020E0000895991B79E004C0991F961708F0961B74
:1020F000881F7A95C9F780950895EE0FFF1F059008
:10210000F491E02D09945058BB27AA270E949B10F8
:102110000C94CC0F0E94BE0F38F00E94C50F20F027
:1021200039F49F3F19F426F40C94BB0F0EF4E0959C
:10213000E7FB0C94B50FE92F0E94DD0F58F3BA1797
:10214000620773078407950720F079F4A6F50C94CD
:10215000FF0F0EF4E0950B2EBA2FA02D0B01B90145
:1021600090010C01CA01A0011124FF27591B99F00D
:10217000593F50F4503E68F11A16F040A22F232F19
:10218000342F4427585FF3CF469537952795A79569
:10219000F0405395C9F77EF41F16BA0B620B730B10
:1021A000840BBAF09150A1F0FF0FBB1F661F771F81
:1021B000881FC2F70EC0BA0F621F731F841F48F436
:1021C000879577956795B795F7959E3F08F0B0CFBF
:1021D0009395880F08F09927EE0F979587950895A6
:1021E0000E94F7106894B1110C94001008950E9499
:1021F000E50F88F09F5798F0B92F9927B751B0F0A5
:10220000E1F0660F771F881F991F1AF0BA95C9F77A
:1022100014C0B13091F00E94FF0FB1E008950C940A
:10222000FF0F672F782F8827B85F39F0B93FCCF3BD
:10223000869577956795B395D9F73EF490958095F7
:10224000709561957F4F8F4F9F4F08950E94240F87
:1022500008F48FEF08950E94240F880B990B0895BE
:0E22600081E090E0F8940C943511F894FFCFD3
:10226E00010100000000AA0765078F07F707A90004
:10227E0087009B00000000004C011F017C01F30051
:10228E0017010301F400493243206572726F723AEE
:10229E0020000D0A00526F626F7420696E746961BE
:1022AE006C697A696E672E2E2E2E00446F6E650055
:1022BE004D657373616765207265636569766564E4
:1022CE0000616E676C653A20006E616E00696E6625
:0622DE00006F76660000AF
:00000001FF
